:100000000C9489000C94A6000C94A6000C94A600F5
:100010000C94A6000C94A6000C94A6000C94A600C8
:100020000C94A6000C946E070C94A6000C94AE07DA
:100030000C94A6000C94D0190C94A6000C94A60065
:100040000C94A6000C94A6000C94A6000C94A60098
:100050000C94A600534B4950004E4F20534420436C
:1000600061726421202D003D3D3D3D3D3D3D3D3DC6
:100070003D3D3D3D3D3D3D007374617274696E6769
:100080002E2E2E0047505320545241434B455200D0
:1000900057454C434F4D4521004750532055504440
:1000A0004154452E2E2E005361766520506F7369A2
:1000B00074696F6E0020416C742E3D20004C6F6E91
:1000C0003A20004C61743A2000245053524631309B
:1000D000332C30352C30302C30312C30312A32302A
:1000E0000024505352463130332C30332C30302CD6
:1000F00030302C30312A32370024505352463130C0
:10010000332C30322C30302C30302C30312A3236F7
:10011000000011241FBECFE5D8E0DEBFCDBF11E047
:10012000A0E6B0E0E8E7F9E302C005900D92AA3836
:10013000B107D9F714E0AAE8B1E001C01D92A83ACE
:10014000B107E1F70E94A8000C94BA1C0C940000BF
:100150001F93CF93DF9381E080937704809375049E
:1001600080937404809376040E9420020E948E0281
:100170000E944F020E94930381E00E94CE0388EE0A
:1001800093E028EC30E0F9013197F1F70197D9F7C6
:1001900081E00E94CE0388EE93E028EC30E0F90184
:1001A0003197F1F70197D9F781E00E94CE0388EEED
:1001B00093E028EC30E0F9013197F1F70197D9F796
:1001C00081E00E94CE0388EE93E028EC30E0F90154
:1001D0003197F1F70197D9F70E94C21981E00E9487
:1001E000CE0388EE93E028EC30E0F9013197F1F787
:1001F0000197D9F70E94390781E00E94CE0388EE6B
:1002000093E028EC30E0F9013197F1F70197D9F745
:100210000E94500781E00E94CE0388EE93E028EC14
:1002200030E0F9013197F1F70197D9F70E9462198F
:10023000182F8823D1F481E00E94CE0388EE93E04A
:1002400028EC30E0F9013197F1F70197D9F778946C
:1002500081E00E94CE0388E893E128EC30E0F901C8
:100260003197F1F70197D9F72CC00E948F0380E0F6
:1002700060E049E550E00E9475038DE060E0412FA9
:100280000E9485038BE061E0409160000E9437038B
:100290008CE061E044E550E00E9475031092750423
:1002A0000E946207C8ECD0E007C088EE93E0FE0130
:1002B0003197F1F70197D9F70E945C028530A9F7D1
:1002C000789482E080937704C8ECD0E02BC00E9441
:1002D000A60580E00E949D0281E00E949D0286E0CA
:1002E0000E949D0287E00E949D0282E00E94CE0350
:1002F00080E29EE4FE013197F1F70197D9F70E9461
:10030000A31A80E00E94BB0281E00E94BB0286E04B
:100310000E94BB0287E00E94BB0283E00E94CE03E2
:100320000E94DB0680917704823009F083C0CFCF32
:10033000809176048823E9F08091A7048823C9F08E
:100340008F5F8093A70480915B01813461F4809179
:10035000A401882331F08F5F8093A40180E00E9484
:10036000BA0385E004C087E00E949D0284E00E94F9
:10037000CE0380917604882349F18091A7048823D5
:1003800029F18F5F8093A704809175048823F1F091
:100390009091A401992351F080917204823031F43C
:1003A0009F5F9093A4010E94C21A10C080917204B2
:1003B000882361F480915B01813441F40E94E01B49
:1003C0000E94681B0E94C21A0E9462070E945C027F
:1003D00090918A019923D9F080918B018530B9F4ED
:1003E000933081F0943018F4913088F004C0955027
:1003F000923068F40AC080E00E94BA0385E00E944F
:10040000CE0305C00E94A31B02C00E94DB068091A0
:10041000A704823010F01092A7048091A4018230CA
:1004200010F01092A40188EE93E0FE013197F1F7ED
:100430000197D9F780917704833009F479CF72CF8F
:1004400010BC87E689B986E880BD88E98AB9089535
:100450001F93182F8A3019F48DE00E9428025D9BAB
:10046000FECF1CB91F910895CF93DF93EC0103C019
:1004700021960E94280288818823D1F7DF91CF91AD
:100480000895CF93DF93EC01FE0121968491882398
:1004900019F00E942802F8CFDF91CF91089584B31C
:1004A0008C7F84BB85B3836085BB81B38F7081BB38
:1004B00082B3806F82BB089580B3807F803F21F438
:1004C00083B38370833021F080E49CE90197F1F7D6
:1004D00080B3807F803F21F483B383708330D1F079
:1004E000869902C081E013C0859902C082E00FC0E6
:1004F000849902C083E00BC0999902C084E007C0D0
:10050000879902C085E003C0989904C086E0809373
:100510008A01089510928A0180E00895109278046B
:1005200088B3836088BB87B3836087BB85B3806CE7
:1005300085BB84B3806C84BB0895282F813049F03B
:10054000813028F0863039F08730A1F406C0C09899
:1005500005C0C19803C0AE9801C0AF9881E090E09B
:1005600002C0880F991F2A95E2F720917804282B62
:10057000209378040895282F813049F0813028F0A5
:10058000863039F08730A9F406C0C09A05C0C19AF8
:1005900003C0AE9A01C0AF9A81E090E002C0880F1C
:1005A000991F2A95E2F780952091780428232093BB
:1005B00078040895282F8091780490E0022E02C0DC
:1005C000959587950A94E2F780FF04C0822F0E94D8
:1005D000BB020895822F0E949D020895D798DF9A4A
:1005E000D998DA9ADB9ACF99FECFDB98D998DA9826
:1005F000DF9A82E08A95F1F70895DA989AB33FEF8F
:100600003ABBDB9A9BB39F709BBB2BB3982F907F19
:10061000922B9BBBDB989AB33ABBDB9A9BB39F7040
:100620009BBB9BB38295807F982B9BBBDB980895E7
:100630001F93182F0E94EE02D99A812F0E94FD026B
:100640001F9108951F93182F0E94EE02D998812FB1
:100650000E94FD021F910895662311F4805801C085
:1006600080540E94220308950E94180308951F9346
:10067000142F0E942C03812F0E9418031F910895AC
:10068000CF93DF93EC0102C00E9418038991882365
:10069000D9F7DF91CF9108950F931F93CF93DF93F5
:1006A000142F052F0E942C03212F302FC901EC019C
:1006B00002C00E94180389918823D9F7DF91CF9156
:1006C0001F910F910895805D0E9418030895CF93A4
:1006D000DF93EC01FE0121968491882319F00E949A
:1006E0001803F8CFDF91CF910895CF93DF93EA01FC
:1006F0000E942C03FE0121968491882319F00E9408
:100700001803F8CFDF91CF9108951F93142F0E9403
:100710002C03812F805D0E9418031F91089581E0B2
:100720000E942203089580E49CE90197F1F780E696
:100730009AEE0197F1F780E30E94220380E30E9482
:10074000220380E30E94220382E00E94220388E2C7
:100750000E94220381E00E94220382E00E94220381
:100760008CE00E94220386E00E94220380E80E941F
:1007700022030895982F80918B01853071F4933076
:1007800050F480918C018F5F80938C01833028F02E
:1007900010928C01089590938C01089590918B0193
:1007A00090938D0180938B01981721F00E948F0305
:1007B00010928C0180918B01843009F443C0853004
:1007C00030F4813059F0823009F0BFC12EC085303D
:1007D00009F48FC0863009F0B8C193C180918C01B3
:1007E0008150883060F48EE30E9434038EE30E94CF
:1007F000340380918C018F5F80938C01089580E099
:1008000060E048E750E00E94750380E061E047E661
:1008100050E00E94750380918C018F5F80938C0162
:1008200080E061E00E942C03089584E060E040E9EC
:1008300050E00E94750382E061E044E850E00E94CD
:100840007503089580E060E049E950E00E94750377
:1008500090918E01892F8F5F80938E018A30E0F016
:10086000995090938E0190918F01892F8F5F809383
:100870008F018A3088F0995090938F018091900178
:100880008F5F809390018A3038F089E080938E01E9
:1008900080938F0180939001809190010E94630367
:1008A00080918F010E94630380918E010E946303F7
:1008B00080E061E00E942C03809157010E94340384
:1008C000809158010E943403809155010E943403A5
:1008D000809156010E943403809153010E94340399
:1008E000809154010E94340388E491E00E94400307
:1008F000089580E060E00E942C039091490180916E
:100900009101981731F490914801809192019817C4
:1009100031F1809148018093920120914901209307
:100920009101322F38502AE0829FC0011124380FE4
:1009300030939301383118F038513093930140913E
:100940009301842F6AE00E94321C8093940126EF69
:100950003FEF829F802D1124840F80939501809119
:1009600094010E946303809195010E9463038AE3CE
:100970000E94340380914A010E94340380914B010C
:100980000E94340380E20E943403809184018E32FD
:1009900051F480E20E943403809182010E9434036A
:1009A000809183010AC0809182010E94340380916A
:1009B00083010E943403809184010E9434038FEDEF
:1009C0000E94340380917C010E94340380917D0158
:1009D0000E94340380917E010E94340380917F0144
:1009E0000E9434038BE40E9434038EE60E94340399
:1009F00080E061E049E751E00E944C0383E061E060
:100A00000E942C0380918C018130C9F1813038F033
:100A1000823009F465C0833009F097C06DC080E270
:100A20000E94340380915C010E94340380915D0137
:100A30000E9434038FED0E94340380915E010E9476
:100A4000340380915F010E943403809160010E9411
:100A50003403809161010E943403809162010E94FD
:100A60003403809163010E943403809164010E94E9
:100A7000340387E20E943403809166013AC080917A
:100A800067010E943403809168010E9434038091C1
:100A900069010E9434038FED0E94340380916A0142
:100AA0000E94340380916B010E94340380916C0199
:100AB0000E94340380916D010E94340380916E0185
:100AC0000E94340380916F010E9434038091700171
:100AD0000E94340387E20E9434038091720109C0AE
:100AE00085EB90E00E94670383E791E00E9440035A
:100AF0008DE60E943403089587EA90E00E94670320
:100B0000089580E060E043EC50E00E94750386E0C9
:100B100060E04CE551E00E944C038FE060E04091C2
:100B200066010E94370380E061E04DEB50E00E94D7
:100B3000750385E061E047E651E00E944C038FE0D9
:100B400061E0409172010E94370308952AE730E086
:100B500030937300209372008AE890E090937E00B7
:100B600080937D0030938E0020938D0026EA30E044
:100B700030939C0020939B0084EB90E09093AA001C
:100B80008093A90082EC90E09093B8008093B70026
:100B90003093C6002093C5000895CF92DF92FF9254
:100BA0000F931F93CF93DF930E948F038091960141
:100BB000882371F1E0917904F0917A0441815281A6
:100BC00082E060E00E944C03E0917904F0917A04A5
:100BD00005811681D80111964D915C91129781E0A3
:100BE00061E00E944C03D8011396ED91FC9114979B
:100BF0004181528188E061E00E944C03809197011D
:100C0000811187E061E0409160000E94370364C079
:100C100080E060E00E942C03E0917904F0917A0476
:100C2000818192810E94400384E060E00E942C0355
:100C30008EE20E9434038CE70E9434038091980175
:100C400090919901882331F4F92E809160000E94DF
:100C5000340308C0F92EFA9486E061E04091600008
:100C60000E94370385E061E00E942C038CE70E941C
:100C70003403E0917904F0917A0405811681C0E093
:100C8000D0E0CF2CDD2423C0F80103811481D801EA
:100C90008C9190E082179307B9F711964D915C9172
:100CA000129787E06F2D0E944C03F8018581968191
:100CB000892B21F48FE06F2D4CE703C08FE06F2D5F
:100CC0004EE30E9437032196C230D10529F0FC2E55
:100CD0009E012C0D3D1DDBCFDF91CF911F910F9118
:100CE000FF90DF90CF9008951F93CF93DF93C8ECD0
:100CF000D0E011E00E945C0280EB94E0FE013197AD
:100D0000F1F70197D9F78091960190918A01882394
:100D100019F1933079F480919901882319F0815069
:100D200080939901809197018823C1F1815080932C
:100D3000970134C09430A9F59091990180919A015E
:100D4000981718F49F5F90939901809197018823D9
:100D500029F51093970122C0913079F4809199017F
:100D6000882319F0815080939901809198018823FC
:100D7000A9F081508093980111C0923091F4909124
:100D8000990180919A01981718F49F5F90939901A7
:100D900080919801882311F4109398010E94CD0549
:100DA000A9CF80918A018550823008F0A3CFDF91CE
:100DB000CF911F9108951F9380ED97E028EC30E0CC
:100DC000F9013197F1F70197D9F710918B011330A1
:100DD00021F0153019F180E04AC081E0809396013E
:100DE0002DE630E030937A04209379041092990133
:100DF00080939A010E94CD050E94740680918A0119
:100E0000853041F480919901882359F1813071F541
:100E100084E001C082E08093770428C0109296019C
:100E200086E990E090937A04809379041092990176
:100E300012E010939A010E94CD050E9474068091E1
:100E40008A01853089F480919901813041F08130A7
:100E500018F0823059F408C00E94A31B07C00E94FA
:100E6000B21B1093770402C082E001C081E01F91A1
:100E7000089510929B0110929C0110929D01109276
:100E80009E0113BE80E882BF89B7816089BF089543
:100E900083E083BF089513BE089580E882BF08955C
:100EA00010929F011092A0011092A1011092A20134
:100EB0001FBC1EBC87E68DBD8BE68CBD89B78460E8
:100EC00089BF08951FBC85E08EBD08951FBC1EBC60
:100ED000089587E68DBD8BE68CBD08951F920F9215
:100EE0000FB60F9211242F933F934F935F936F93FD
:100EF0007F938F939F93AF93BF93EF93FF93F89458
:100F000087E68DBD8BE68CBD80919F019091A001FD
:100F1000A091A101B091A2010196A11DB11D8093E4
:100F20009F019093A001A093A101B093A20181E041
:100F30008093A4010E94DA027894FF91EF91BF910F
:100F4000AF919F918F917F916F915F914F913F9161
:100F50002F910F900FBE0F901F9018951F920F9218
:100F60000FB60F9211242F933F934F935F936F937C
:100F70007F938F939F93AF93BF93EF93FF93F894D7
:100F800080E882BF80919B0190919C01A0919D017E
:100F9000B0919E010196A11DB11D80939B0190937C
:100FA0009C01A0939D01B0939E0181E08093A301D9
:100FB00080E00E94DA027894FF91EF91BF91AF91A7
:100FC0009F918F917F916F915F914F913F912F9161
:100FD0000F900FBE0F901F90189583B382958F705E
:100FE00080958170089583B38295869587708095EA
:100FF00081700895282F8FEF8FB9779BFECF779858
:101000008FB1822F80648FB9779BFECF7798872F1F
:101010009927AA27BB278FB9779BFECF7798CB015B
:10102000AA27BB278FB9779BFECF7798BB27A72F1F
:10103000962F852F8FB9779BFECF77984FB9779BE7
:10104000FECF7798222311F08FEF01C085E98FB989
:10105000779BFECF779890E02FEF2FB9779BFECF4D
:1010600077988FB18F3F19F49F5F9A30B1F7089549
:101070000F931F93CF93DF93EC01009709F4EEC019
:1010800083B382958F7080FDE9C089E1FE011192E2
:101090008A95E9F7C4988AE040E050E060E070E0AB
:1010A0000E94FA07882309F063C09FEF9FB9779BDE
:1010B000FECF77988FB18E3FC9F71C2FCE01FC0170
:1010C00060E670E00FEF8E2F811B0FB9779BFECF8C
:1010D00077982FB1883028F4833088F4882359F02A
:1010E0000CC08D3018F4893070F40BC08D3019F1BC
:1010F0008E3069F524C028832AC0208328C021832C
:1011000026C02A8724C030E040E050E0062E04C00C
:10111000220F331F441F551F0A94D2F78B859C85DD
:10112000AD85BE85822B932BA42BB52B8B879C87FB
:10113000AD87BE870CC02295207F2F8708C0922FD5
:1011400092959F708F85892B8F872F70288B319672
:10115000685070408FEF603D780709F0B4CF89E0A8
:1011600040E050E060E070E00E94FA07882311F050
:10117000C49A74C09FEF9FB9779BFECF77988FB1C9
:101180008E3FC9F7B0E0F0E060E070E0E0E01FEF14
:10119000A1E01FB9779BFECF77988FB1E83019F1A6
:1011A000E93040F4E63089F0E730A8F4E53009F0A2
:1011B0004EC008C0EA3029F1EA30F8F0EE3009F00C
:1011C00046C037C0B82FBF7042C090E083709070A7
:1011D000782F66273CC090E0682B792B660F771F2D
:1011E000660F771F34C0829586958695837090E050
:1011F000682B792B6F5F7F4F2AC0F82FF370FF0F9A
:1012000026C0881F8827881FF82B9B0140E050E0EC
:101210008B2F90E002968F0F911D04C0220F331F79
:10122000441F551F8A95D2F7298B3A8B4B8B5C8BC9
:101230000EC090E086FDAD8B85FDAE8B84FDAF8B3F
:101240008C7090709595879595958795888FEF5FB1
:10125000E23109F09ECFC49A81E001C080E0DF91C5
:10126000CF911F910F9108952F923F924F925F92CD
:101270006F927F928F929F92AF92BF92CF92DF92A6
:10128000EF92FF920F931F93CF93DF934B015C017B
:101290002A01390183B382958695877080FF96C0B5
:1012A0009EC0E12CEEEFFE2EEFEF0E2FEFEF1E2F84
:1012B000E820F9200A211B217FEFC72E71E0D72EED
:1012C000C820D920C0E0D2E0CC19DD096C167D061B
:1012D00008F4E3018091A5039091A603A091A703D0
:1012E000B091A803E816F9060A071B07F9F00E9457
:1012F000050A882309F473C0C114D10421F482E0E3
:10130000C030D80758F4C801B70145EA51E020E0E1
:1013100032E00E941F0A882309F461C0E092A5030D
:10132000F092A6030093A7031093A80385EA48163A
:1013300081E0580671F096012B553E4FC901B2016C
:10134000AE010E94871C1092A9036C167D0609F459
:1013500048C0C49888E1B801A7010E94FA07882311
:1013600011F0C49A3CC08EEF8FB9779BFECF77986F
:10137000E5EAF1E081918FB9779BFECF779883E022
:10138000E53AF807B9F73FB8779BFECF77983FB8B3
:10139000779BFECF77983FB8779BFECF77988FB13A
:1013A0008F3FC9F78FB9779BFECF77988FB1C49ADB
:1013B0004C0E5D1ECE01A0E0B0E0880E991EAA1E64
:1013C000BB1E6C1A7D0A2092A90304C033243A94F0
:1013D000222423946114710409F063CF02C080E0D9
:1013E00001C081E0DF91CF911F910F91FF90EF90AD
:1013F000DF90CF90BF90AF909F908F907F906F9035
:101400005F904F903F902F9008958091A90388237B
:1014100011F081E008956091A5037091A603809179
:10142000A7039091A80345EA51E020E032E00E9432
:101430003409882319F081E08093A90308953F922D
:101440004F925F926F927F928F929F92AF92BF92D4
:10145000CF92DF92EF92FF920F931F93CF93DF9380
:101460004B015C016A01290133243A9482C0E12CCA
:10147000AEEFFA2EAFEF0A2FAFEF1A2FE820F920C8
:101480000A211B21FFEF6F2EF1E07F2E68207920CB
:10149000C0E0D2E0C619D7094C165D0608F4E20197
:1014A0008091A5039091A603A091A703B091A803F2
:1014B000E816F9060A071B0709F448C00E94050A46
:1014C000882309F45BC0C49881E1B801A7010E9498
:1014D000FA07882319F0C49A80E050C03FB8779B80
:1014E000FECF77988FB18E3FC9F7E5EAF1E03FB8BC
:1014F000779BFECF77988FB1808383E0E43AF8073B
:1015000011F03196F4CFE092A503F092A603009378
:10151000A7031093A80393012B553E4FC601B901B1
:10152000AE010E94871C3FB8779BFECF77988FB1A2
:101530003FB8779BFECF77988FB1C49A3FB8779B1F
:10154000FECFCC0EDD1E77988FB10AC093012B55CC
:101550003E4FC601B901AE010E94871CCC0EDD1EB4
:101560004C1A5D0ACE01A0E0B0E0880E991EAA1EBA
:10157000BB1E4114510409F07ACF81E0DF91CF9175
:101580001F910F91FF90EF90DF90CF90BF90AF90A1
:101590009F908F907F906F905F904F903F900895B5
:1015A0002F923F924F925F926F927F928F929F9273
:1015B000AF92BF92CF92DF92EF92FF920F931F9361
:1015C000DF93CF9300D000D0CDB7DEB74B015C01E5
:1015D0003A013C832B832701DA82C98241155105E8
:1015E000A9F12115310591F10217130778F1E114E2
:1015F000F10461F119013094219431083394021BF4
:10160000130B6901EE24FF24C501B401A3012B8152
:101610003C810E941F0A8823C9F0C301B501A401BF
:1016200029813A81F2010995882391F0020D131D59
:101630008B819C81800F911F2B813C8182179307A6
:1016400038F08C0C9D1CAE1CBF1CDECF80E001C0AE
:1016500081E00F900F900F900F90CF91DF911F912D
:101660000F91FF90EF90DF90CF90BF90AF909F9041
:101670008F907F906F905F904F903F902F90089544
:10168000CF93DF93A498A598BD9ABF9ABC9ABE98B1
:10169000C49A83E58DB9709883B382958F7080FD6D
:1016A0001BC080E09FEF9FB9779BFECF77982FB14B
:1016B0008F5F8A30C1F7C498C0E0D0E080E040E09E
:1016C00050E060E070E00E94FA07813049F081E06C
:1016D000CF3FD80719F4C49A80E03CC02196EECFE2
:1016E000C0E0D0E081E040E050E060E070E00E94C7
:1016F000FA0780FF06C08FE7CF3FD80761F3219636
:10170000F1CF80E140E052E060E070E00E94FA0733
:10171000882309F7C49A8DB18C7F8DB9709A8FEFA9
:101720009FEFAFEFBFEF8093A5039093A603A09325
:10173000A703B093A80381E08093A90360E070E061
:1017400080E090E045EA51E020E032E00E941F0A8C
:10175000811181E0DF91CF9108954F925F926F9256
:101760007F928F929F92AF92BF92CF92DF92EF9231
:10177000FF920F931F93CF93DF935B016C014A019C
:10178000E901380127014115510571F101151105D4
:1017900059F1FF242115310511F5FF24F3941FC0E1
:1017A000C401B601A5019201F30109958C010097CE
:1017B000E9F0FF2019F4C817D907B0F0C601B50148
:1017C000A40198010E943409882371F0C801A0E0A7
:1017D000B0E0A80EB91ECA1EDB1EC01BD10BFF2035
:1017E000F9F62097E9F602C080E001C081E0DF91C0
:1017F000CF911F910F91FF90EF90DF90CF90BF900E
:10180000AF909F908F907F906F905F904F900895D2
:10181000FC01009711F480E00895108681E008959E
:101820008F929F92AF92BF92CF92DF92EF92FF92F0
:101830000F93DF93CF93CDB7DEB760970FB6F894D1
:10184000DEBF0FBECDBF7C016B015A01490100977D
:1018500009F493C06115710509F48FC004300CF0D0
:101860008CC007FD1DC0602F772767FD7095E4E0F1
:10187000660F771FEA95E1F762547E4F882777FD60
:101880008095982FAE014F5F5F4F20E130E0F70168
:101890000995882309F471C08D81882309F46DC0EE
:1018A0008091B203882309F068C07CC08D81809349
:1018B000B2032A8530E040E050E0542F432F322F0E
:1018C00022278B8590E0A0E0B0E0DC0199278827F3
:1018D000282B392B4A2B5B2B898590E0A0E0B0E0C8
:1018E000282B392B4A2B5B2B8C8590E0A0E0B0E0B5
:1018F000B82FAA2799278827282B392B4A2B5B2B0F
:101900002093B3033093B4034093B5035093B603CD
:101910002E8530E040E050E0542F432F322F222715
:101920008F8590E0A0E0B0E0DC0199278827282B84
:10193000392B4A2B5B2B8D8590E0A0E0B0E0282B63
:10194000392B4A2B5B2B888990E0A0E0B0E0B82FC0
:10195000AA2799278827282B392B4A2B5B2B2093E2
:10196000B7033093B8034093B9035093BA0303C04D
:101970008FEF8093B2039F0102C020E030E0C901E5
:1019800060960FB6F894DEBF0FBECDBFCF91DF914A
:101990000F91FF90EF90DF90CF90BF90AF909F900E
:1019A0008F900895EAEAF3E081E1DF011D928A95C4
:1019B000E9F7F092AB03E092AA03D092AD03C09294
:1019C000AC03B092AF03A092AE039092B1038092A9
:1019D000B00307FF6BCFCCCFFC01009711F0118251
:1019E00010820895DF93CF9300D0CDB7DEB7DC012E
:1019F0000097A1F16230710588F1ED91FC9111978A
:101A0000660F771F80E090E016962D913D914D91E5
:101A10005C911997620F731F841F951F0190F081CD
:101A2000E02DAE014F5F5F4F22E030E00995882343
:101A3000A9F09A8180E0298130E0282B392B2115EB
:101A4000310571F08FEF273F380741F0C90140960B
:101A5000079720F08FEF283F380710F020E030E0A4
:101A6000C9010F900F90CF91DF9108952F923F926F
:101A70004F925F926F927F928F929F92AF92BF929E
:101A8000CF92DF92EF92FF920F931F93DF93CF934A
:101A9000CDB7DEB72E970FB6F894DEBF0FBECDBF21
:101AA0003C012B011A01009709F4DDC0DC01ED9126
:101AB000FC911197208131813E872D87448155818A
:101AC0005C874B8716968D919D910D90BC91A02DB2
:101AD0008F839887A987BA87F30182859385A48528
:101AE000B585B695A795979587959E838D8341017A
:101AF00000E010E0AA24BB2443C0C501880F991F51
:101B00006C01EE24FF242F81388549855A85C20E49
:101B1000D31EE41EF51EC701B601AE014F5F5F4F35
:101B200022E030E0AD85BE85FD010995882309F4EA
:101B30009AC08981882309F58A818823F1F4821467
:101B4000930421F4BFEFB983BA8302C009831A83D7
:101B5000C701B601AE014F5F5F4F22E030E0EB8579
:101B6000FC850995882391F00894810891088114D7
:101B7000910411F485010CC085010894A11CB11CCD
:101B80002D813E81A216B30608F4B7CF892801F54E
:101B900032E04316510408F468C009831A83440CE8
:101BA000551CB20180E090E02F81388549855A8527
:101BB000620F731F841F951FAE014F5F5F4F22E0BE
:101BC00030E0AB85BC85FD010995882309F04DC047
:101BD0000230110508F447C0F301268037804084A5
:101BE000518423E0822E912C8C0E9D1E000F111F1C
:101BF0006801EE24FF24C20CD31CE41CF51CD301A5
:101C0000ED91FC910190F081E02DC701B601A40196
:101C100022E030E00995882331F1BC80AA248B8131
:101C2000082F10E00A291B2901151105F1F0C80140
:101C300040960897C0F0BFEF083F1B0710F000E088
:101C400010E01B821C82D301ED91FC910480F58190
:101C5000E02DC701B601A40122E030E0099501158D
:101C6000110521F602C000E010E0C8012E960FB663
:101C7000F894DEBF0FBECDBFCF91DF911F910F91C2
:101C8000FF90EF90DF90CF90BF90AF909F908F909C
:101C90007F906F905F904F903F902F900895FC0140
:101CA000009711F01182108208952F923F924F9267
:101CB0005F926F927F928F929F92AF92BF92CF92DC
:101CC000DF92EF92FF920F931F93DF93CF93CDB7E5
:101CD000DEB72A970FB6F894DEBF0FBECDBF2C013A
:101CE0007C836B831A01009709F406C1672B09F402
:101CF00003C14115510509F4FFC0DC019D96AD906B
:101D0000BD90CD90DC90D09795962D913D914D91C1
:101D10005C919897C101A0E0B0E08A0D9B1DAC1DBD
:101D2000BD1D281739074A075B0728F419012A182F
:101D30003B0809F4E4C0D201ED91FC911197208990
:101D400031893A832983D1968D919C91D2979A8734
:101D50008987390188249924892BD9F593960D9088
:101D6000BC91A02DBA87A987AB2B39F4A114B1047B
:101D7000C104D10409F4C3C0BFC0A114B104C1049B
:101D8000D10439F18601750188279927DC0186196C
:101D90009709A809B9098D839E83AF83B88714C0BA
:101DA000D2018D919C9169857A850E94F20C9A8767
:101DB0008987892B09F4A0C08D819E81AF81B88568
:101DC000E80EF91E0A1F1B1FE614F7040805190583
:101DD00038F7C601B501A40193010E94651C5B019F
:101DE0006101D201ED90FC90E114F10409F1E98563
:101DF000FA85E230F105E0F03297BF0180E090E033
:101E00003296FA87E987D70150962D913C915197E8
:101E100040E050E00E94131C9B01AC01F701868951
:101E20009789A08DB18D280F391F4A1F5B1F04C0F1
:101E300020E030E040E050E009811A810A191B09D6
:101E4000C016D10608F48601D701ED91FC91C501B9
:101E5000A0E0B0E0280F391F4A1F5B1F0190F081FE
:101E6000E02DCA01B9014B815C8198010995882355
:101E700061F1C01AD10AC801A0E0B0E0F20125A5C5
:101E800036A547A550A9280F391F4A1F5B1FD2014D
:101E90009D962D933D934D935C93D097C8018A0DE9
:101EA0009B1DE981FA818E179F07A8F08D919C9167
:101EB00069857A850E94F20C9A878987892B49F473
:101EC000D201D2961C921E92D197A1014C195D09A4
:101ED00018C0AA24BB2429853A85F20132AB21AB74
:101EE000C114D10439F08B819C81800F911F9C8398
:101EF0008B8377CFA10105C04FEF5FEF02C040E0B9
:101F000050E0CA012A960FB6F894DEBF0FBECDBFCF
:101F1000CF91DF911F910F91FF90EF90DF90CF90C5
:101F2000BF90AF909F908F907F906F905F904F90F9
:101F30003F902F900895FC01009711F480E00895E0
:101F400083A194A196A785A710AA17A681E008955A
:101F5000CF92DF92EF92FF920F931F93CF93DF9375
:101F6000EC016A017B018901F90160817181828143
:101F700093818096938382838881853E09F4B9C0DA
:101F8000882309F4B6C0FB0187A190A5A1A5B2A53D
:101F90000097A105B10521F4C7A2D0A6E1A6F2A63B
:101FA0006115710509F4A7C0209709F4A4C09881B0
:101FB000992309F4A0C08B858F3041F5892F90E0DB
:101FC0008F7390702DE030E0829FA001839F500DB1
:101FD000929F500D11244D505040A9ECB0E09B0150
:101FE000240F351F0FC08D91FE01E80FF11D808178
:101FF000F90181939F014F5F5F4FF0E0A63DBF075E
:1020000009F477C04F31510570F373C0FB01808133
:102010008823A9F5AE01DE0180E090E0282F3C91F5
:10202000303251F0FB01E80FF91F30832F5F01962A
:1020300011968830910591F7FB018081853011F46C
:1020400085EE808388858032B1F0FB01E20FF11DBF
:102050008EE28083822F8F5F2C5FFA019085903211
:1020600049F0FB01E80FF11D90838F5F4F5F5F4FD9
:10207000821799F7282FFB01E20FF11D10828B8543
:10208000FB0180A39B8D80E02A8D30E0822B932B77
:1020900092A381A32D8D30E040E050E0542F432FD8
:1020A000322F22278E8D90E0A0E0B0E0DC0199274E
:1020B0008827282B392B4A2B5B2B8C8D90E0A0E0B6
:1020C000B0E0282B392B4A2B5B2B8F8D90E0A0E0C2
:1020D000B0E0B82FAA2799278827282B392B4A2B1D
:1020E0005B2B23A334A345A356A381E0F80184838B
:1020F00002C081E001C080E0DF91CF911F910F917C
:10210000FF90EF90DF90CF90089508950895FC011F
:10211000009729F420E030E040E050E014C06285F0
:102120007385848595859695879577956795625093
:102130007040804090402089318940E050E00E940A
:10214000131C9B01AC01B901CA0108952F923F9263
:102150004F925F926F927F928F929F92AF92BF92B7
:10216000CF92DF92EF92FF920F931F93DF93CF9363
:10217000CDB7DEB7A5970FB6F894DEBF0FBECDBFC3
:102180009DA38CA3892B09F45BC01A82198280E27B
:102190008B83ACA1BDA116964D905D906D907C9007
:1021A00019971A968D909D90AD90BC901D9734C054
:1021B000BEEF8B16BFEF9B06B0E0AB06B0E0BB06F0
:1021C00028F0BEEF2B2EBFEF3B2E01C01401ACA1B7
:1021D000BDA1ED91FC910280F381E02DC301B2011C
:1021E000AE014C5F5F4F20E230E08101AFE3EA2EA9
:1021F000A1E1FA2E6E010894C11CD11C0995882317
:10220000F9F0C101A0E0B0E0480E591E6A1E7B1E25
:10221000881A990AAA0ABB0A81149104A104B1047C
:1022200039F6ECA1FDA16089718980E090E02981F7
:102230003A8140E050E00E94131C9B01AC0104C0B5
:1022400020E030E040E050E0B901CA01A5960FB6A9
:10225000F894DEBF0FBECDBFCF91DF911F910F91DC
:10226000FF90EF90DF90CF90BF90AF909F908F90B6
:102270007F906F905F904F903F902F900895482FE0
:10228000F9015281282F392FC901DC0110C01196A4
:102290003C91119720E08C9190E0822B932B892B1D
:1022A00029F48081918101969183808312968A2FEF
:1022B000841B851760F381E00895FC0180E1DF0154
:1022C0001D928A95E9F780E190E008952F923F9260
:1022D0004F925F926F927F928F929F92AF92BF9236
:1022E000CF92DF92EF92FF920F931F93DF93CF93E2
:1022F000CDB7DEB7A7970FB6F894DEBF0FBECDBF40
:102300004C017FA36EA3009709F4B9C06115710554
:1023100009F4B5C0DC012D903C901197F101408883
:1023200051889D96AD90BC909E979F966D907C90A5
:10233000D0978BE2DB011D928A95E9F7FE01319679
:1023400085E0DF011D928A95E9F7A114B10409F037
:102350007EC0F1014688578882899389481A590AB4
:1023600076C06301EE24FF24A114B10441F4D1012D
:1023700052966D917D918D919C9155972EC0F4014F
:10238000008111810115110511F1F2E0AF16B104C0
:10239000F0F02EEF3FEFA20EB31EB50180E090E00B
:1023A000A2E0B0E0AA0EBB1EF8012089318940E00E
:1023B00050E00E94131C9B01AC01F80186899789AB
:1023C000A08DB18D280F391F4A1F5B1F04C020E06C
:1023D00030E040E050E0CA01B9016C0D7D1D8E1D5A
:1023E0009F1D1C821B82D401ED91FC910190F08114
:1023F000E02D8201061917090280F381E02DAE015C
:102400004A5F5F4F20E230E0A8EAEA2EAFE0FA2E02
:102410006E010894C11CD11C0995882381F18B8120
:102420009C81680E791E64147504A8F0F401808103
:102430009181B5010E94F20C5C016624772400971B
:1024400051F4D4019396AD90BC90949708C0EEA13E
:10245000FFA1FA83E9838D81882309F482CFD40117
:102460009E96BC92AE929D97D0967C926E929F97CC
:10247000EEA1FFA18081882319F081E001C080E0F6
:10248000A7960FB6F894DEBF0FBECDBFCF91DF91F8
:102490001F910F91FF90EF90DF90CF90BF90AF9082
:1024A0009F908F907F906F905F904F903F902F9074
:1024B0000895FB018BE2DB011D928A95E9F780E12B
:1024C00080A381E008952F923F924F925F926F9286
:1024D0007F928F929F92AF92BF92CF92DF92EF92B4
:1024E000FF920F931F93DF93CF93CDB7DEB7E097A3
:1024F0000FB6F894DEBF0FBECDBF6C01009709F494
:102500009FC1DC0114968D919C911597892B09F43C
:1025100097C116968D919C911797892B09F490C1BC
:10252000ABC1EBEBF3E08AE1DF011D928A95E9F79D
:10253000D092BC03C092BB03D60119962D913D9158
:102540004D915C911C9719E0220F331F441F551FBA
:102550001A95D1F72AA33BA34CA35DA3CA01B901E5
:10256000655F7F4F8F4F9F4FED91FC91AE014F5FA5
:102570005F4F29E130E00995882309F484C1A980DF
:102580004A80BB81BEA30C81FD801E813F8158849F
:1025900069847A849D8580E02C85E22FF0E0E82B29
:1025A000F92B8E883F88288DE98C309709F46BC110
:1025B000432D50E060E070E0962F852F742F662742
:1025C00069A77AA78BA79CA7822F90E0A0E0B0E034
:1025D000BC015527442789A59AA5ABA5BCA5842B8A
:1025E000952BA62BB72B482D50E060E070E0842B94
:1025F000952BA62BB72B89A79AA7ABA7BCA78E2D87
:1026000090E0A0E0B0E0782F66275527442789A501
:102610009AA5ABA5BCA5842B952BA62BB72B89A778
:102620009AA7ABA7BCA70097A105B10589F4972D80
:1026300080E0662D70E0682B792B6115710509F437
:1026400022C1CB01A0E0B0E089A79AA7ABA7BCA7A5
:10265000942D80E02A2C3324282A392A952D80E0D5
:10266000A32FB0E0A82BB92BB8A7AFA39F2D80E074
:10267000202F30E0822B932B9C0140E050E02E8FE6
:102680003F8F48A359A3BF0180E090E0212F30E0A5
:1026900040E050E00E94131C6A8F7B8F8C8F9D8FCF
:1026A000E9A4FAA40BA51CA54E8D5F8D68A179A1A4
:1026B000E41AF50A060B170B6A8D7B8D8C8D9D8DA8
:1026C000E61AF70A080B190BC10101972FA138A5CB
:1026D00045E0220F331F4A95E1F7820F931FB101A6
:1026E0000E943E1C80E090E0E61AF70A080B190BE6
:1026F0007EA1272F30E040E050E0C801B7010E94E2
:10270000651C29013A01D301C201855F9F40A040A9
:10271000B0408050904FA040B04008F0B4C086E078
:10272000D60118968C939DEB892E93E0992E88E123
:10273000F40111928A95E9F75101CC24DD2469A5B1
:102740007AA58BA59CA5A60195010E94131C6093F8
:10275000BD037093BE038093BF039093C003C60173
:10276000B5012E8D3F8D48A159A10E94131C7B01FC
:102770008C012AA13BA14CA15DA1E20EF31E041F16
:10278000151FE092C103F092C2030093C30310939C
:10279000C40342E050E060E070E0440E551E661E47
:1027A000771E440C551C661C771C4092C503509242
:1027B000C6036092C7037092C8033092CA03209286
:1027C000C9035EA1852F90E0BC01269EC001279E13
:1027D000900D369E900D11249093CC038093CB03E3
:1027E0006A8D7B8D8C8D9D8DA60195010E94131C99
:1027F0006E0D7F1D801F911F6093CD037093CE03DC
:102800008093CF039093D003AFA1B8A59D0140E082
:1028100050E0B5E0220F331F441F551FBA95D1F782
:10282000620F731F841F951F6093D1037093D203AF
:102830008093D3039093D40394012250304002C07C
:1028400020E030E0C901E0960FB6F894DEBF0FBE7D
:10285000CDBFCF91DF911F910F91FF90EF90DF904F
:10286000CF90BF90AF909F908F907F906F905F9030
:102870004F903F902F9008958091BB039091BC039F
:10288000892BF1F64ECE1092BC031092BB03D8CF29
:102890003F924F925F926F927F928F929F92AF92F0
:1028A000BF92CF92DF92EF92FF920F931F93DF932D
:1028B000CF93CDB7DEB7A0970FB6F894DEBF0FBEAB
:1028C000CDBFFC018B01009709F42EC16115710584
:1028D00009F42AC10190F081E02D44805580DB018C
:1028E0009796AD90BD90CD90DC909A97E62E912E64
:1028F000FB0101900020E9F73197FE2EF61A8F2D8B
:1029000090E00C966DE070E00E94521C762ECE0195
:10291000019660E270E04BE050E00E94901CC8011C
:102920006EE270E00E94AF1CFC010097E1F09C0198
:102930002F5F3F4F81818823B1F0D9010D90002096
:10294000E9F71197A21BB30B8A2F8095F80EBE01F1
:10295000675F7F4F4A2FA43008F043E0CB01B901F5
:1029600050E00E94871CCE010196B8E0BF1588F0A8
:102970006E2D792D4F2D50E00E94871CF80180812B
:102980008E3231F581818E3209F482818823F9F00B
:102990001FC0DC018E2D992D9C01F90188E001906A
:1029A0000D928150E1F7D80191968C91982F9295D4
:1029B0009F70803A10F4905D01C09F598F708A30EB
:1029C00010F4805D01C08F599F83888701C07724F0
:1029D0008981853E11F485E089836CE0862E912CF7
:1029E0008C0E9D1E85E1F40111928A95E9F7D801BC
:1029F00090968C9190978C8791968C9191979296C6
:102A00009C9192978B8F9C8F93968D919D910D9019
:102A1000BC91A02D8D8F292F3A2F4B2F55272E8F0C
:102A20009D01442755272F8F8B2F9927AA27BB2736
:102A300088A3672D70E080E090E025E0660F771FA7
:102A4000881F991F2A95D1F76A0D7B1D8C1D9D1D2E
:102A5000AE014F5F5F4F20E230E0F201099588231D
:102A600009F462C0E980FE01329694018E2D8695AC
:102A7000E794EE24E794E82A8191E80EE217F30741
:102A8000A9F7F72C4E010894811C911C9DE0392E6A
:102A90008FE0682E44C0C4016FEF70E040E250E068
:102AA0000E94901CF39CD00111241D97A00FB11F10
:102AB00091E0F401E90FF11D8C918083892F8F5FE4
:102AC000F401E80FF11D10829E5F9B3019F09A31DE
:102AD00021F402C09EE001C09CE18C91882321F08A
:102AE0009F3110F41196E5CFF982F71419F48F2D68
:102AF000806489836C86EE861D861B8E1C8EC601C3
:102B0000B501A40120E230E0F201099580E290E0F5
:102B1000A0E0B0E0A80EB91ECA1EDB1EFA94FF208A
:102B200009F0B9CF81E001C080E0A0960FB6F8941B
:102B3000DEBF0FBECDBFCF91DF911F910F91FF90F0
:102B4000EF90DF90CF90BF90AF909F908F907F904D
:102B50006F905F904F903F9008952F923F924F92C9
:102B60005F926F927F928F929F92AF92BF92CF921D
:102B7000DF92EF92FF920F931F93DF93CF93CDB726
:102B8000DEB765970FB6F894DEBF0FBECDBF8C01E0
:102B90007B015D8B4C8B009709F433C16115710586
:102BA00009F42FC1DB018C91882309F42AC1452B3C
:102BB00009F427C1DC88CD88C8016C897D890E9411
:102BC0006611882379F0C7016D2D7C2D0E94971C1A
:102BD000009791F7F80183A194A196A785A710AA61
:102BE00017A60FC1D8012D903C908BE2EC89FD898E
:102BF00011928A95E9F78D2D9C2DB7014FE150E098
:102C00000E94A01C2114310409F4E3C0AC89BD89E1
:102C1000FD0101900020E9F7EA1BFB0BCF010B96A9
:102C20006DE070E00E943E1CF62FFF5FFA8BD8012A
:102C300093964D905C9094974114510451F0662402
:102C400077244301EE24FF248701AA24BB246501D5
:102C50000BC0F101E288F3880489158966887788BA
:102C6000808C918C570168011B8AE614F7040805D3
:102C7000190509F081C04114510409F4AAC0E114F6
:102C8000F1040105110509F443C0C101B2010E941C
:102C9000F20C0097E1F5C101B20141E050E00E9461
:102CA000360D8C01009709F494C0D1015096ED9037
:102CB000FC90519702501040B80180E090E00E5F08
:102CC0001F4F970140E050E00E94131C5B016C0114
:102CD000F10186899789A08DB18DA80EB91ECA1EF3
:102CE000DB1E0230110508F477C00190F081E02D61
:102CF0000680F781E02DC601B501AE014E5F5F4F42
:102D000097010DE511E1EE24FF24099565C02C0122
:102D1000F2E04F16510420F4EE24FF2487011DC079
:102D20002EEF3FEF420E531EB20180E090E0A2E092
:102D3000B0E04A0E5B1EF1012089318940E050E08D
:102D40000E94131C7B018C01F10186899789A08D5B
:102D5000B18DE80EF91E0A1F1B1FD10150968D91EF
:102D60009C9151973C01882499246E0C7F1C801EF5
:102D7000911E570168011B8AD101ED91FC910190D0
:102D8000F081E02DC801B701AE014F5F5F4F21E038
:102D900030E009958823E9F08981853E11F0882388
:102DA00079F4BB89BF5FBB8BEA89BE17A8F480E2C8
:102DB00090E0A0E0B0E0E80EF91E0A1F1B1F55CFFF
:102DC00080E290E0A0E0B0E0E80EF91E0A1F1B1FB1
:102DD00049CFAA24BB246501AC89BD899796AD92E1
:102DE000BD92CD92DC929A97A114B104C104D10492
:102DF00041F0C101BD010E944814882319F081E00F
:102E000001C080E065960FB6F894DEBF0FBECDBF5F
:102E1000CF91DF911F910F91FF90EF90DF90CF90B6
:102E2000BF90AF909F908F907F906F905F904F90EA
:102E30003F902F9008952F923F924F925F926F9202
:102E40007F928F929F92AF92BF92CF92DF92EF923A
:102E5000FF920F931F93DF93CF9300D000D000D049
:102E6000CDB7DEB76C011B015C834B83009709F47F
:102E700049C16115710509F445C1452B09F442C1E9
:102E8000DC019D964D905D906D907C90D0979596CD
:102E90008D919D910D90BC91A02D84159505A60551
:102EA000B70508F42FC1D601ED91FC911197208947
:102EB00031893A832983D1968D919C91D2979E83B3
:102EC0008D834901AA24BB24892B09F053C0939612
:102ED0000D90BC91A02DBE83AD83AB2BA9F4411402
:102EE00051046104710409F00DC1CF0160E070E08C
:102EF00041E050E00E94360D9E838D83F60194A33D
:102F000083A3892B09F4FEC0D6019D96ED90FD9018
:102F10000D911C91D097E114F1040105110529F5DB
:102F200029C0E818F9080A091B09F6018081918176
:102F30006D817E810E94F20C009719F09E838D8333
:102F400014C0E114F1040105110509F0DBC0D6013C
:102F50008D919C916D817E8141E050E00E94360D03
:102F6000009709F4CFC09E838D83E814F9040A0505
:102F70001B05B8F6C301B201A50194010E94651CAE
:102F80004B01AB80BC80F601E080F180E114F104DC
:102F900019F12D813E8122303105F0F02250304070
:102FA000B90180E090E02E5F3F4F3E832D83D70133
:102FB00050962D913C91519740E050E00E94131C97
:102FC0009B01AC01F70186899789A08DB18D280FEF
:102FD000391F4A1F5B1F04C020E030E040E050E092
:102FE00009811A8108191909A016B10608F485018A
:102FF000D701ED91FC91C401A0E0B0E0280F391F8A
:103000004A1F5B1F0480F581E02DCA01B901A101AF
:1030100098010995882309F44BC0A01AB10AC80188
:10302000A0E0B0E0F60125A536A547A550A9280FD8
:10303000391F4A1F5B1FD6019D962D933D934D93DB
:103040005C93D097C801880D991DE981FA818E178C
:103050009F0708F18D919C916D817E810E94F20CF9
:10306000009719F09E838D8314C0A114B10459F008
:10307000D6018D919C916D817E8141E050E00E944E
:10308000360D009721F4F60112AA11AA11C09E83F1
:103090008D8388249924ED81FE81D601D296FC93FC
:1030A000EE93D197A114B10419F0200E311E6BCF0D
:1030B000F60185A596A5A7A5B0A9E5A0F6A007A14C
:1030C00010A5E816F9060A071B07B8F485A396A30E
:1030D000A7A3B0A781919191BF010E9448148823B2
:1030E00061F4D6019D96AD90BC909E97AE18BF0836
:1030F000F601E5A6F6A607A710AB4B815C814A193D
:103100005B0902C04FEF5FEFCA0126960FB6F89435
:10311000DEBF0FBECDBFCF91DF911F910F91FF900A
:10312000EF90DF90CF90BF90AF909F908F907F9067
:103130006F905F904F903F902F900895CF93DF93C3
:103140009C01FB01009731F06115710519F080A118
:1031500084FD1FC020E030E0C901DF91CF910895C8
:10316000CAE0D4E0DF018BE20D9009928150E1F7D3
:10317000309309042093080481A192A1909336040E
:1031800080933504109238041092370428E034E01C
:10319000E3CF8091080490910904892BD9F6E0CF00
:1031A000CF93DF939C01FB01009731F0611571050E
:1031B00019F080A184FF23C020E030E0C901DF9135
:1031C000CF910895C7EDD3E0DF018BE20D90099216
:1031D0008150E1F73093D6032093D5031092020477
:1031E00010920304109204041092050481A192A18C
:1031F000909307048093060425ED33E0DFCF8091A0
:10320000D5039091D603892BB9F6DCCF40913904D0
:1032100080916B0490916C0463EE70E050E00E942A
:103220001B172091390430E08217930711F081E0D9
:1032300008950E94050A882311F080E0089582E035
:10324000089580916B0490916C040E944F0E80E071
:1032500008958AE180937B040AC080917B048150A9
:1032600080937B048091DD008F5F8093DD008091EF
:103270007B04882361F08091690490916A0466ED73
:1032800070E04CE754E00E94AD15882331F3809143
:103290007B04882311F481E008958AE080937B0405
:1032A00080913C0490913D046CE774E00E94D0183A
:1032B00090936C0480936B04892B11F080E0089547
:1032C00082E008950F9385E001C0815080937B04D4
:1032D0000E94400B882321F480917B048823A9F766
:1032E00080917B04882311F481E04AC085E08093BB
:1032F0007B048FE19AE060ED7AE044E359E02DEA47
:103300003BE000E00E94100C90933B0480933A0451
:10331000892B99F48FE19AE060ED7AE044E359E07B
:103320002DEA3BE00FEF0E94100C90933B0480933A
:103330003A04892B11F482E023C080913A049091E1
:103340003B040E94631290933D0480933C040097D9
:1033500011F483E015C06EE374E00E94591280916D
:103360003C0490913D046EE374E00E949E1890939B
:103370006A0480936904892B11F080E001C084E025
:103380000F9108958FEF80936E0410926D04109248
:10339000A70410926F0410927004109271040895A3
:1033A0001F920F920FB60F9211242F933F934F93BA
:1033B0005F936F937F938F939F93AF93BF93EF939D
:1033C000FF93F8949CB190936E0480916F048F5F8B
:1033D00080936F0420916D04222309F496C08430F9
:1033E00091F4973419F09D3439F402C082E001C0A1
:1033F00083E080936D0495C010926D0410926F0469
:10340000109270048EC09C3241F4809170048F5FE2
:10341000809370041092710484C09A3011F09D3032
:1034200069F410926F04233019F481E08093A704AB
:1034300087E00E94BB0210926D0473C02230A1F499
:1034400080917004873021F0893009F058C006C09F
:10345000E0917104F0E0E758FE4F50C0E091710434
:10346000F0E0ED58FE4F4AC0233009F05AC0809179
:103470007004853049F1863060F48230C9F08330C1
:1034800018F48130E1F50EC08330A9F08430B9F52D
:1034900018C0873011F18730E8F0883021F1893089
:1034A00071F527C0E0917104F0E0E85BFE4F26C0A3
:1034B00090935B0124C0E0917104F0E0E45AFE4F68
:1034C0001DC0909366011BC0E0917104F0E0E959C2
:1034D000FE4F14C09093720112C0E0917104F0E0AD
:1034E000E458FE4F0BC0E0917104F0E0EE57FE4F40
:1034F00005C0E0917104F0E0ED5AFE4F9083809199
:1035000071048F5F809371040CC0943251F481E098
:1035100080936D041092700410926F0487E00E94F3
:103520009D027894FF91EF91BF91AF919F918F9100
:103530007F916F915F914F913F912F910F900FBEAF
:103540000F901F90189589EF90E00E9441028DE046
:103550000E9428028AE00E94280281EE90E00E94E8
:1035600041028DE00E9428028AE00E94280289EC34
:1035700090E00E9441028DE00E9428028AE00E94B1
:103580002802089586E00E94DA0284E28093E30034
:103590008CE78093E400E3E5F1E0A5EEB0E08191F3
:1035A0008D9381E0E935F807D1F78CE78093EB0044
:1035B000E8E4F1E0ACEEB0E081918D9381E0E2359A
:1035C000F807D1F79CE79093F60080915B01809318
:1035D000F7009093F800ECE5F1E0A9EFB0E08191FD
:1035E0008D9381E0E536F807D1F79CE790930201CF
:1035F00080916601809303019093040120E030E004
:10360000F901ED51FF4FD901A959BE4F8C9182A309
:103610002F5F3F4F2A30310599F79CE790930F01B8
:1036200080917201809310019093110120E030E0AD
:10363000F901ED51FF4FD901AD58BE4F8C9187A7CD
:103640002F5F3F4F2530310599F78CE780931701A5
:10365000909179019093180190917A0190931901BA
:1036600080931A0120E030E0F901ED51FF4FD901BC
:10367000A458BE4F8C9180AF2F5F3F4F253031054E
:1036800099F78CE78093200120E030E0F901ED51BB
:10369000FF4FD901AE57BE4F8C9186AF2F5F3F4F82
:1036A0002630310599F79CE7909327018091890195
:1036B000809328019093290183E280932A018AE074
:1036C00080932B0189E4809339040E9406190895A0
:1036D00086E00E94DA0287E48093E30080E580932D
:1036E000E40093E59093E5008FE58093E6009093E6
:1036F000E70094E59093E80081E48093E90082E597
:103700008093EA009093EB0080E48093EC0082E2E7
:103710008093ED00E6EDF0E0AEEEB0E081918D93A8
:1037200080E0E23EF807D1F782E28093FA008AE077
:103730008093FB0089E18093390482E080937204D6
:103740000E940619089583E00E94BA0385E00E9452
:10375000CE0381E4809389010E94C21A8EE4809393
:103760008901089586E00E94DA0287E48093E300ED
:1037700080E58093E40023E52093E5008FE58093C6
:10378000E60086E48093E70099E49093E8008EE4F5
:103790008093E9009093EA002093EB0088E4809303
:1037A000EC008AE08093ED008BE0809339040E9466
:1037B0000619882321F4109272040E942119089599
:1037C00086E00E94DA02809157018093D6008091B2
:1037D00058018093D700809155018093D800809143
:1037E00056018093D900809153018093DA00809133
:1037F00054018093DB008FE58093DC0081E48093AB
:10380000DD008EE28093DE0082E78093DF0081E6B8
:103810008093E00087E78093E10081E08093720469
:103820000E9429190895629FD001739FF001829F21
:10383000E00DF11D649FE00DF11D929FF00D839F3F
:10384000F00D749FF00D659FF00D9927729FB00DDC
:10385000E11DF91F639FB00DE11DF91FBD01CF01EF
:1038600011240895991B79E004C0991F961708F058
:10387000961B881F7A95C9F780950895AA1BBB1BD4
:1038800051E107C0AA1FBB1FA617B70710F0A61B60
:10389000B70B881F991F5A95A9F780959095BC0181
:1038A000CD01089597FB092E07260AD077FD04D095
:1038B000E5DF06D000201AF4709561957F4F0895DA
:1038C000F6F7909581959F4F0895A1E21A2EAA1BB5
:1038D000BB1BFD010DC0AA1FBB1FEE1FFF1FA217C0
:1038E000B307E407F50720F0A21BB30BE40BF50BBD
:1038F000661F771F881F991F1A9469F76095709546
:10390000809590959B01AC01BD01CF010895FB010D
:10391000DC0102C001900D9241505040D8F708954B
:10392000DC0101C06D9341505040E0F70895FB0168
:10393000DC018D91019080190110D9F3990B089544
:10394000FB01DC014150504048F001900D920020F5
:10395000C9F701C01D9241505040E0F70895FC01A5
:1039600081E090E00190061609F4CF010020D1F724
:0839700001970895F894FFCFC0
:103978007E47505320545241434B4552000061004A
:1039880000000000537461727400007400000000AD
:103998000053657474696E6773000181000000004C
:1039A800004D454E5500009100000000005361761F
:1039B8006520506F7300009D000000000046696E8E
:1039C8006973680001AD000000000043616E636523
:1039D8006C0002BB000000000001030507090E107F
:1039E800121416181C1E30303030303030302E3063
:1039F8003030003132333435363738395F3132338D
:103A08003435363738395F3132333435363738392B
:103A18005F3132333435363738395F313233343504
:103A2800363738395F3132333435363738395F31E4
:103A380032333435363738395F3132333435363707
:103A480038395F3132333435363738395F313233CC
:103A58003435363738395F0074696D3030302E3080
:103A68003030006461743030303000736C61743011
:103A78002E30303030006E6C6F6E30302E3030307B
:103A8800300065616C743030006E300073706430E3
:0A3A98003000646972303030004ED7
:00000001FF
